:1000000071C0000081C000007FC00000C6C00000B9
:10001000ECC0000079C0000077C0000075C000008F
:1000200073C0000071C000006FC000006DC0000010
:100030006BC0000069C0000067C0000065C0000020
:1000400063C0000036C100005FC000005DC000005A
:100050005BC0000059C0000057C00000EEC00000A7
:1000600053C0000051C000004FC000004DC0000050
:100070004BC0000049C0000047C0000045C0000060
:1000800043C0000041C000003FC000003DC0000070
:100090003BC0000039C0000037C0000035C0000080
:1000A00033C0000031C000002FC000002DC0000090
:1000B0002BC0000029C0000027C0000025C00000A0
:1000C00023C0000021C000001FC000001DC00000B0
:1000D0001BC0000019C0000017C0000015C00000C0
:1000E00013C0000011241FBECFEFD1E2DEBFCDBF91
:1000F00000E00CBF22E0A0E0B2E001C01D92A230FF
:10010000B207E1F739D0FDC07BCF8FEF84B915B8C6
:100110000895883060F421E030E0A90102C0440F66
:10012000551F8A95E2F7CA0193B1892785B90895C9
:10013000E9E6F0E080818062808380818F7E808329
:100140008081806C80838DB38C608DBB089514BCDE
:1001500081E085BD80936E000895109280008CE050
:100160008093810083E89EE19093890080938800CA
:1001700082E080936F000895C8DFDADFE8DFEDDF0B
:10018000789487E0C6DF2FEF83ED90E32150804025
:100190009040E1F700C00000F4CF1F920F920FB61D
:1001A0000F9211240BB60F922F933F934F935F93AF
:1001B0006F937F938F939F93AF93BF93EF93FF932F
:1001C00082E0A7DFFF91EF91BF91AF919F918F9157
:1001D0007F916F915F914F913F912F910F900BBE47
:1001E0000F900FBE0F901F9018951F920F920FB691
:1001F0000F9211240BB60F922F933F934F935F935F
:100200006F937F938F939F93AF93BF93EF93FF93DE
:1002100083E07FDFFF91EF91BF91AF919F918F912D
:100220007F916F915F914F913F912F910F900BBEF6
:100230000F900FBE0F901F9018951F920F920FB640
:100240000F9211240BB60F922F933F934F935F930E
:100250006F937F938F939F93AF93BF93EF93FF938E
:100260008091000290910102019690930102809387
:10027000000280910002909101028432944F30F08C
:1002800086E047DF1092010210920002FF91EF9189
:10029000BF91AF919F918F917F916F915F914F919E
:1002A0003F912F910F900BBE0F900FBE0F901F909C
:1002B00018951F920F920FB60F9211240BB60F9242
:1002C0002F933F934F935F936F937F938F939F935E
:1002D000AF93BF93EF93FF9385E01BDFFF91EF9107
:1002E000BF91AF919F918F917F916F915F914F914E
:1002F0003F912F910F900BBE0F900FBE0F901F904C
:060300001895F894FFCFF0
:00000001FF
