:020000020000FC
:1000000001E20EBF0FEF0DBF10E011B91FEF14B9E1
:10001000109515B9079B0E942500069B0E942B0096
:10002000059B0E943100049B0E943700039B0E94A5
:100030003D00029B0E944500019B0E945300009BD3
:100040000E9459000E945F00E5CF25B1239525B994
:100050000E946600089525B12A9525B90E94660080
:10006000089525B1229525B90E946600089525B10D
:10007000209525B90E946600089525B126952695FC
:10008000269525B90E946600089525B137E04427DA
:10009000203029F04395231BE8F74A95230F45B9F3
:1000A0000E946600089525B12E7725B90E9466004A
:1000B000089525B1216825B90E94660008950AEFC8
:1000C0001FEF1A95F1F70A95D9F7089520B12F3F40
:0400D000E9F70895AF
:00000001FF
