S00F00004C414231325F312E7372656353
S113000071C000008EC000008CC000008AC00000D7
S113001088C0000086C0000084C0000082C00000C8
S113002080C000007EC000007CC000007AC00000D8
S113003078C0000076C0000074C0000072C00000E8
S113004070C000006EC000006CC000006AC00000F8
S113005068C0000066C0000064C0000062C0000008
S113006060C00000ECC000005CC000005AC000008A
S113007058C0000056C0000054C0000052C0000028
S113008050C000004EC000004CC000004AC0000038
S113009048C0000046C0000044C0000042C0000048
S11300A040C000003EC000003CC000003AC0000058
S11300B038C0000036C0000034C0000032C0000068
S11300C030C000002EC000002CC000002AC0000078
S11300D028C0000026C0000024C0000022C0000088
S11300E020C0000011241FBECFEFD1E2DEBFCDBF80
S11300F000E00CBF12E0A0E0B2E0E2E7F4E000E0D0
S11301000BBF02C007900D92AE32B107D9F722E0BF
S1130110AEE2B2E001C01D92A033B207E1F75AD0BB
S1130120A6C16ECF84EA8093BC008091BC00882372
S1130130E4F708958093BB0084E88093BC00809129
S1130140BC008823E4F70895811104C084EC8093F3
S1130150BC0003C084E88093BC008091BC00882369
S1130160E4F78091BB00089584E98093BC0008956E
S11301708FEF84B915B80895883060F421E030E039
S1130180A90102C0440F551F8A95E2F7CA0193B131
S1130190892785B90895CF93DF93C82FC3DF8C2FA8
S11301A090E0885B9F4F880F991F8160C3DF80E0D8
S11301B0CBDFC82FD0E0DC2FCC2781E0C5DFC80F10
S11301C0D11DD2DFCE01880F892F881F990BDF91B3
S11301D0CF910895CDDF21E048E060E875E280E04A
S11301E090E064D0789480E0D6DF90932F028093DF
S11301F02E0280E092E0BFD080912E0290912F02D7
S113020099230CF4019695958795C1D08DE092E0E1
S1130210B2D080912E0280FF03C085E3A5D002C036
S113022080E3A2D08FE092E0A6D02FEF83ED90E39D
S1130230215080409040E1F700C00000D4CF1F92CD
S11302400F920FB60F9211240BB60F922F933F9378
S11302504F935F936F937F938F939F93AF93BF93CA
S1130260CF93EF93FF93C091C60080ED8C0F88303D
S113027048F482DF84E192E07ED08C2F75D080E256
S113028092E079D0FF91EF91CF91BF91AF919F917F
S11302908F917F916F915F914F913F912F910F902B
S11302A00BBE0F900FBE0F901F9018950F931F93C6
S11302B0CF93DF93C42FD22F8B019C010C5211409A
S11302C021093109053D104C2140310508F047C092
S11302D02BEF2C0F243008F042C0DC01CB01880F37
S11302E0991FAA1FBB1F880F991FAA1FBB1F9C0120
S11302F0AD01220F331F441F551F220F331F441F0C
S1130300551F60E074E284EF90E05CD02150310925
S11303103093C5002093C40088E18093C1001092FB
S1130320C200C73051F0C83071F0C63089F4E2EC35
S1130330F0E08081826080830BC0E2ECF0E0808199
S11303408460808305C0E2ECF0E080818660808375
S1130350DD2329F0E1ECF0E0808180688083DF9187
S1130360CF911F910F9108959091C00095FFFCCFFC
S11303708093C6000895CF93DF93EC0102C0F4DFAD
S1130380219688818111FBCFDF91CF910895CF937E
S1130390DF93CDB7DEB727970FB6F894DEBF0FBE55
S11303A0CDBF4AE0BE016F5F7F4F2ED0CE010196D4
S11303B0E2DF27960FB6F894DEBF0FBECDBFDF9104
S11303C0CF910895A1E21A2EAA1BBB1BFD010DC0FB
S11303D0AA1FBB1FEE1FFF1FA217B307E407F507F1
S11303E020F0A21BB30BE40BF50B661F771F881FCD
S11303F0991F1A9469F760957095809590959B0163
S1130400AC01BD01CF010895BB274A3031F49923D3
S113041022F4BDE2909581959F4F01C0BB27FB015B
S11304205527AA27880F991FAA1FA41710F0A41BE9
S113043083955051B9F7A05DAA3308F0A95DA19343
S1130440009779F7B111B1931192CB0100C0DC018F
S1130450FC01672F71917723E1F7329704C07C91F7
S11304606D9370836291AE17BF07C8F30895F89433
S1050470FFCFB8
S113047254656D706572617475723A20002C0020A7
S1130482430D0A004C4544206E756D6D6572200063
S111049220657220746F67676C65640D0A0044
S9030000FC
