S00E00004C4142375F322E737265637F
S113000071C0000079C0000077C0000075C0000016
S113001073C0000071C000006FC000006DC000001C
S11300206BC0000069C0000067C0000065C000002C
S113003063C0000061C000005FC000005DC000003C
S11300405BC0000059C0000057C0000055C000004C
S113005053C0000051C000004FC000004DC000005C
S11300604BC0000049C0000047C0000045C000006C
S113007043C0000041C000003FC000003DC000007C
S11300803BC0000039C0000037C0000035C000008C
S113009033C0000031C000002FC000002DC000009C
S11300A02BC0000029C0000027C0000025C00000AC
S11300B023C0000021C000001FC000001DC00000BC
S11300C01BC0000019C0000017C0000015C00000CC
S11300D013C0000011C000000FC000000DC00000DC
S11300E00BC0000011241FBECFEFD1E2DEBFCDBF95
S11300F000E00CBF02D06CC083CF52D02CD0C0E043
S113010003C052D0C82F2BD0C138D9F78FEF27D0D6
S11301102FEF87EA91E6215080409040E1F700C03C
S1130120000080E01CD02FEF87EA91E62150804048
S11301309040E1F700C00000C0E00AC08C2F37D027
S1130140882319F08C2F0DD002C08C2F19D0CF5FCB
S1130150C830A0F3F1CF8FEF84B915B8089585B9ED
S11301600895883060F421E030E0A90102C0440F12
S1130170551F8A95E2F7CA0193B1892B85B9089571
S1130180883068F421E030E0A90102C0440F551F13
S11301908A95E2F7CA0193B18095892385B90895B8
S11301A011B88FEF82B9089580B180950895883091
S11301B068F420B130E0A90102C0559547958A95AD
S11301C0E2F7CA0151E085278170089580E008951F
S10701D0F894FFCFCD
S9030000FC
